{
  "contractName": "Event",
  "abi": [
    {
      "inputs": [
        {
          "internalType": "string",
          "name": "nameOfEvent",
          "type": "string"
        },
        {
          "internalType": "uint256",
          "name": "ticketCount",
          "type": "uint256"
        },
        {
          "internalType": "uint256",
          "name": "ticketCharges",
          "type": "uint256"
        },
        {
          "internalType": "uint256",
          "name": "durationInMinute",
          "type": "uint256"
        },
        {
          "internalType": "address",
          "name": "benificiaryAddress",
          "type": "address"
        }
      ],
      "payable": false,
      "stateMutability": "nonpayable",
      "type": "constructor"
    },
    {
      "constant": true,
      "inputs": [
        {
          "internalType": "address",
          "name": "",
          "type": "address"
        }
      ],
      "name": "amount",
      "outputs": [
        {
          "internalType": "uint256",
          "name": "",
          "type": "uint256"
        }
      ],
      "payable": false,
      "stateMutability": "view",
      "type": "function"
    },
    {
      "constant": true,
      "inputs": [],
      "name": "availableTicket",
      "outputs": [
        {
          "internalType": "uint256",
          "name": "",
          "type": "uint256"
        }
      ],
      "payable": false,
      "stateMutability": "view",
      "type": "function"
    },
    {
      "constant": true,
      "inputs": [],
      "name": "eventDeadline",
      "outputs": [
        {
          "internalType": "uint256",
          "name": "",
          "type": "uint256"
        }
      ],
      "payable": false,
      "stateMutability": "view",
      "type": "function"
    },
    {
      "constant": true,
      "inputs": [],
      "name": "eventName",
      "outputs": [
        {
          "internalType": "string",
          "name": "",
          "type": "string"
        }
      ],
      "payable": false,
      "stateMutability": "view",
      "type": "function"
    },
    {
      "constant": true,
      "inputs": [],
      "name": "ticketAmount",
      "outputs": [
        {
          "internalType": "uint256",
          "name": "",
          "type": "uint256"
        }
      ],
      "payable": false,
      "stateMutability": "view",
      "type": "function"
    },
    {
      "constant": true,
      "inputs": [
        {
          "internalType": "address",
          "name": "",
          "type": "address"
        }
      ],
      "name": "ticketPurchase",
      "outputs": [
        {
          "internalType": "uint256",
          "name": "",
          "type": "uint256"
        }
      ],
      "payable": false,
      "stateMutability": "view",
      "type": "function"
    },
    {
      "constant": false,
      "inputs": [],
      "name": "getState",
      "outputs": [
        {
          "internalType": "string",
          "name": "",
          "type": "string"
        }
      ],
      "payable": false,
      "stateMutability": "nonpayable",
      "type": "function"
    },
    {
      "constant": false,
      "inputs": [
        {
          "internalType": "uint256",
          "name": "numberOfTicket",
          "type": "uint256"
        }
      ],
      "name": "purchaseTicket",
      "outputs": [],
      "payable": true,
      "stateMutability": "payable",
      "type": "function"
    },
    {
      "constant": false,
      "inputs": [],
      "name": "finishEvent",
      "outputs": [],
      "payable": false,
      "stateMutability": "nonpayable",
      "type": "function"
    },
    {
      "constant": false,
      "inputs": [],
      "name": "collectAmount",
      "outputs": [],
      "payable": false,
      "stateMutability": "nonpayable",
      "type": "function"
    },
    {
      "constant": false,
      "inputs": [],
      "name": "cancelTicket",
      "outputs": [],
      "payable": false,
      "stateMutability": "nonpayable",
      "type": "function"
    },
    {
      "constant": false,
      "inputs": [],
      "name": "remove",
      "outputs": [],
      "payable": false,
      "stateMutability": "nonpayable",
      "type": "function"
    }
  ],
  "bytecode": "0x60806040523480156200001157600080fd5b50604051620017df380380620017df83398181016040526200003791908101906200022e565b84600090805190602001906200004f929190620000f5565b508360018190555060018302600281905550603c820262000075620000ed60201b60201c565b016003819055506000600460146101000a81548160ff021916908360038111156200009c57fe5b021790555033600760006101000a81548173ffffffffffffffffffffffffffffffffffffffff021916908373ffffffffffffffffffffffffffffffffffffffff1602179055505050505050620003cc565b600042905090565b828054600181600116156101000203166002900490600052602060002090601f016020900481019282601f106200013857805160ff191683800117855562000169565b8280016001018555821562000169579182015b82811115620001685782518255916020019190600101906200014b565b5b5090506200017891906200017c565b5090565b620001a191905b808211156200019d57600081600090555060010162000183565b5090565b90565b600081519050620001b58162000398565b92915050565b600082601f830112620001cd57600080fd5b8151620001e4620001de82620002f7565b620002c9565b915080825260208301602083018583830111156200020157600080fd5b6200020e83828462000362565b50505092915050565b6000815190506200022881620003b2565b92915050565b600080600080600060a086880312156200024757600080fd5b600086015167ffffffffffffffff8111156200026257600080fd5b6200027088828901620001bb565b9550506020620002838882890162000217565b9450506040620002968882890162000217565b9350506060620002a98882890162000217565b9250506080620002bc88828901620001a4565b9150509295509295909350565b6000604051905081810181811067ffffffffffffffff82111715620002ed57600080fd5b8060405250919050565b600067ffffffffffffffff8211156200030f57600080fd5b601f19601f8301169050602081019050919050565b6000620003318262000338565b9050919050565b600073ffffffffffffffffffffffffffffffffffffffff82169050919050565b6000819050919050565b60005b838110156200038257808201518184015260208101905062000365565b8381111562000392576000848401525b50505050565b620003a38162000324565b8114620003af57600080fd5b50565b620003bd8162000358565b8114620003c957600080fd5b50565b61140380620003dc6000396000f3fe6080604052600436106100a75760003560e01c8063a7f4377911610064578063a7f43779146101ac578063a94b2291146101c3578063b948348c146101da578063b9f0bf66146101f6578063ca36385c14610233578063f0846d1d1461024a576100a7565b80630ba679c1146100ac5780631865c57d146100d75780633ed8892c146101025780636b3d92071461013f5780637e65b5431461016a5780638043c9c014610181575b600080fd5b3480156100b857600080fd5b506100c1610275565b6040516100ce91906112d0565b60405180910390f35b3480156100e357600080fd5b506100ec61027b565b6040516100f9919061116e565b60405180910390f35b34801561010e57600080fd5b5061012960048036036101249190810190610d87565b61029a565b60405161013691906112d0565b60405180910390f35b34801561014b57600080fd5b506101546102b2565b60405161016191906112d0565b60405180910390f35b34801561017657600080fd5b5061017f6102b8565b005b34801561018d57600080fd5b50610196610420565b6040516101a3919061114c565b60405180910390f35b3480156101b857600080fd5b506101c16104be565b005b3480156101cf57600080fd5b506101d86105d1565b005b6101f460048036036101ef9190810190610db0565b610779565b005b34801561020257600080fd5b5061021d60048036036102189190810190610d87565b610975565b60405161022a91906112d0565b60405180910390f35b34801561023f57600080fd5b5061024861098d565b005b34801561025657600080fd5b5061025f610be8565b60405161026c91906112d0565b60405180910390f35b60025481565b6060610295600460149054906101000a900460ff16610bee565b905090565b60066020528060005260406000206000915090505481565b60035481565b60008060038111156102c657fe5b600460149054906101000a900460ff1660038111156102e157fe5b14610321576040517f08c379a0000000000000000000000000000000000000000000000000000000008152600401610318906112b0565b60405180910390fd5b600760009054906101000a900473ffffffffffffffffffffffffffffffffffffffff1673ffffffffffffffffffffffffffffffffffffffff163373ffffffffffffffffffffffffffffffffffffffff16146103b1576040517f08c379a00000000000000000000000000000000000000000000000000000000081526004016103a8906111d0565b60405180910390fd5b6103b9610d42565b156103f9576040517f08c379a00000000000000000000000000000000000000000000000000000000081526004016103f0906111b0565b60405180910390fd5b6002600460146101000a81548160ff0219169083600381111561041857fe5b021790555050565b60008054600181600116156101000203166002900480601f0160208091040260200160405190810160405280929190818152602001828054600181600116156101000203166002900480156104b65780601f1061048b576101008083540402835291602001916104b6565b820191906000526020600020905b81548152906001019060200180831161049957829003601f168201915b505050505081565b600760009054906101000a900473ffffffffffffffffffffffffffffffffffffffff1673ffffffffffffffffffffffffffffffffffffffff163373ffffffffffffffffffffffffffffffffffffffff161461054e576040517f08c379a0000000000000000000000000000000000000000000000000000000008152600401610545906111f0565b60405180910390fd5b610556610d42565b15610596576040517f08c379a000000000000000000000000000000000000000000000000000000000815260040161058d90611230565b60405180910390fd5b600460009054906101000a900473ffffffffffffffffffffffffffffffffffffffff1673ffffffffffffffffffffffffffffffffffffffff16ff5b60028060038111156105df57fe5b600460149054906101000a900460ff1660038111156105fa57fe5b1461063a576040517f08c379a0000000000000000000000000000000000000000000000000000000008152600401610631906112b0565b60405180910390fd5b600760009054906101000a900473ffffffffffffffffffffffffffffffffffffffff1673ffffffffffffffffffffffffffffffffffffffff163373ffffffffffffffffffffffffffffffffffffffff16146106ca576040517f08c379a00000000000000000000000000000000000000000000000000000000081526004016106c190611290565b60405180910390fd5b600460009054906101000a900473ffffffffffffffffffffffffffffffffffffffff1673ffffffffffffffffffffffffffffffffffffffff166108fc6008549081150290604051600060405180830381858888f1935050505015610751576003600460146101000a81548160ff0219169083600381111561074757fe5b0217905550610776565b6001600460146101000a81548160ff0219169083600381111561077057fe5b02179055505b50565b600080600381111561078757fe5b600460149054906101000a900460ff1660038111156107a257fe5b146107e2576040517f08c379a00000000000000000000000000000000000000000000000000000000081526004016107d9906112b0565b60405180910390fd5b6107ea610d42565b610829576040517f08c379a000000000000000000000000000000000000000000000000000000000815260040161082090611250565b60405180910390fd5b600082600154031215610871576040517f08c379a000000000000000000000000000000000000000000000000000000000815260040161086890611210565b60405180910390fd5b348260025402146108b7576040517f08c379a00000000000000000000000000000000000000000000000000000000081526004016108ae90611190565b60405180910390fd5b34600560003373ffffffffffffffffffffffffffffffffffffffff1673ffffffffffffffffffffffffffffffffffffffff1681526020019081526020016000206000828254019250508190555081600660003373ffffffffffffffffffffffffffffffffffffffff1673ffffffffffffffffffffffffffffffffffffffff1681526020019081526020016000206000828254019250508190555034600860008282540192505081905550816001600082825403925050819055505050565b60056020528060005260406000206000915090505481565b600080600381111561099b57fe5b600460149054906101000a900460ff1660038111156109b657fe5b146109f6576040517f08c379a00000000000000000000000000000000000000000000000000000000081526004016109ed906112b0565b60405180910390fd5b6000600560003373ffffffffffffffffffffffffffffffffffffffff1673ffffffffffffffffffffffffffffffffffffffff1681526020019081526020016000205411610a78576040517f08c379a0000000000000000000000000000000000000000000000000000000008152600401610a6f90611270565b60405180910390fd5b6000600560003373ffffffffffffffffffffffffffffffffffffffff1673ffffffffffffffffffffffffffffffffffffffff1681526020019081526020016000205490506000600560003373ffffffffffffffffffffffffffffffffffffffff1673ffffffffffffffffffffffffffffffffffffffff168152602001908152602001600020819055506000600660003373ffffffffffffffffffffffffffffffffffffffff1673ffffffffffffffffffffffffffffffffffffffff168152602001908152602001600020549050806001600082825401925050819055503373ffffffffffffffffffffffffffffffffffffffff166108fc839081150290604051600060405180830381858888f19350505050610be3578060016000828254039250508190555081600560003373ffffffffffffffffffffffffffffffffffffffff1673ffffffffffffffffffffffffffffffffffffffff168152602001908152602001600020819055505b505050565b60015481565b606060006003811115610bfd57fe5b826003811115610c0957fe5b1415610c4c576040518060400160405280600681526020017f41637469766500000000000000000000000000000000000000000000000000008152509050610d3d565b60016003811115610c5957fe5b826003811115610c6557fe5b1415610ca8576040518060400160405280600681526020017f4661696c656400000000000000000000000000000000000000000000000000008152509050610d3d565b60026003811115610cb557fe5b826003811115610cc157fe5b1415610d04576040518060400160405280600981526020017f436f6d706c6574656400000000000000000000000000000000000000000000008152509050610d3d565b6040518060400160405280600781526020017f506169644f75740000000000000000000000000000000000000000000000000081525090505b919050565b6000600354610d4f610d55565b10905090565b600042905090565b600081359050610d6c81611392565b92915050565b600081359050610d81816113a9565b92915050565b600060208284031215610d9957600080fd5b6000610da784828501610d5d565b91505092915050565b600060208284031215610dc257600080fd5b6000610dd084828501610d72565b91505092915050565b6000610de4826112f6565b610dee8185611301565b9350610dfe81856020860161134e565b610e0781611381565b840191505092915050565b6000610e1d826112eb565b610e278185611301565b9350610e3781856020860161134e565b610e4081611381565b840191505092915050565b6000610e58601a83611301565b91507f506c656173652070726f766964652066756c6c20616d6f756e740000000000006000830152602082019050919050565b6000610e98602183611301565b91507f43616e6e6f742066696e697368204576656e74206265666f72652074696d696e60008301527f67000000000000000000000000000000000000000000000000000000000000006020830152604082019050919050565b6000610efe601b83611301565b91507f4f6e6c79206f776e65722063616e206368616e676520737461746500000000006000830152602082019050919050565b6000610f3e601e83611301565b91507f4f6e6c79206f776e65722063616e2072656d6f766520636f6e747261637400006000830152602082019050919050565b6000610f7e600b83611301565b91507f5469636b6574206f7574200000000000000000000000000000000000000000006000830152602082019050919050565b6000610fbe602283611301565b91507f43616e27742072656d6f7665206265666f7265206576656e7420446561646c6960008301527f6e650000000000000000000000000000000000000000000000000000000000006020830152604082019050919050565b6000611024602b83611301565b91507f596f7520617265204c6174652e20426f6f6b696e67206e6f7420617661696c6160008301527f626c6520616e796d6f72650000000000000000000000000000000000000000006020830152604082019050919050565b600061108a601383611301565b91507f4e6f207469636b657420707572636861736573000000000000000000000000006000830152602082019050919050565b60006110ca601d83611301565b91507f4f6e6c79206f776e65722063616e20636f6c6c65637420616d6f756e740000006000830152602082019050919050565b600061110a600c83611301565b91507f496e76616c6964537461746500000000000000000000000000000000000000006000830152602082019050919050565b61114681611344565b82525050565b600060208201905081810360008301526111668184610e12565b905092915050565b600060208201905081810360008301526111888184610dd9565b905092915050565b600060208201905081810360008301526111a981610e4b565b9050919050565b600060208201905081810360008301526111c981610e8b565b9050919050565b600060208201905081810360008301526111e981610ef1565b9050919050565b6000602082019050818103600083015261120981610f31565b9050919050565b6000602082019050818103600083015261122981610f71565b9050919050565b6000602082019050818103600083015261124981610fb1565b9050919050565b6000602082019050818103600083015261126981611017565b9050919050565b600060208201905081810360008301526112898161107d565b9050919050565b600060208201905081810360008301526112a9816110bd565b9050919050565b600060208201905081810360008301526112c9816110fd565b9050919050565b60006020820190506112e5600083018461113d565b92915050565b600081519050919050565b600081519050919050565b600082825260208201905092915050565b600061131d82611324565b9050919050565b600073ffffffffffffffffffffffffffffffffffffffff82169050919050565b6000819050919050565b60005b8381101561136c578082015181840152602081019050611351565b8381111561137b576000848401525b50505050565b6000601f19601f8301169050919050565b61139b81611312565b81146113a657600080fd5b50565b6113b281611344565b81146113bd57600080fd5b5056fea365627a7a723158205ddfcfbf01b0c72020896e8eee50e4c8793c788ef256981ce84f14de975dadd36c6578706572696d656e74616cf564736f6c63430005100040",
  "source": "pragma solidity >=0.4.21 <0.7.0;\npragma experimental ABIEncoderV2;\ncontract Event {\n    \n    enum State { Active ,Failed , Completed, PaidOut}\n    string public eventName;\n    uint public availableTicket;\n    uint public  ticketAmount;\n    uint public eventDeadline;\n    address payable  eventBenificiary;\n    State  state;\n    mapping(address => uint) public amount;\n    mapping(address => uint) public ticketPurchase;\n    address owner;\n    uint amountCollected;\n    \n    \n    constructor(string memory nameOfEvent, uint ticketCount, uint ticketCharges , uint durationInMinute, address benificiaryAddress) public {\n        eventName = nameOfEvent;\n        availableTicket = ticketCount;\n        ticketAmount = ticketCharges * 1 wei ;\n        eventDeadline = currentTime() + durationInMinute * 1 minutes;\n        state = State.Active;\n        owner =msg.sender; \n    }\n    \n    function checkState(State pos) internal returns(string memory){\n        if(pos==State.Active){ return \"Active\";}\n        else if(pos==State.Failed){ return \"Failed\";}\n        else if(pos==State.Completed){ return \"Completed\";}\n        else {return \"PaidOut\";}\n    }\n    \n    function getState() public  returns(string memory){\n        return checkState(state);\n    }\n\n    function currentTime() internal view returns(uint){\n        return now;\n    }\n    \n    modifier inState(State expectedState){\n        require(state==expectedState,\"InvalidState\");\n        _;\n    }\n    \n    function purchaseTicket(uint numberOfTicket) public payable inState(State.Active){\n        \n        require(beforeDeadline(),\"You are Late. Booking not available anymore\");\n        require(int(availableTicket - numberOfTicket) >= 0 ,\"Ticket out \" );\n        require((ticketAmount * numberOfTicket) == msg.value,\"Please provide full amount\");\n        \n        amount[msg.sender]+=msg.value;\n        ticketPurchase[msg.sender]+= numberOfTicket;\n        amountCollected += msg.value;\n        availableTicket -= numberOfTicket;\n        \n        \n        \n    }\n    \n    function beforeDeadline() internal view returns(bool) {\n          return currentTime() < eventDeadline ;\n     }\n    \n    function finishEvent() public inState(State.Active) {\n        require(msg.sender==owner,\"Only owner can change state\");\n        require(!beforeDeadline(),\"Cannot finish Event before timing\");\n        state = State.Completed;\n    }\n    \n    function collectAmount() public inState(State.Completed) {\n        require(msg.sender==owner,\"Only owner can collect amount\");\n        if(eventBenificiary.send(amountCollected)){\n            state = State.PaidOut;\n        }\n        else{\n            state = State.Failed;\n        }\n        \n    }\n    \n    function cancelTicket() public inState(State.Active){\n        require(amount[msg.sender] > 0, \"No ticket purchases\");\n        \n        uint ticketValues = amount[msg.sender];\n        amount[msg.sender] = 0;\n        uint temp = ticketPurchase[msg.sender];\n        availableTicket+=temp;\n        if(!msg.sender.send(ticketValues)){\n            availableTicket-=temp;\n            amount[msg.sender] = ticketValues;\n        }\n        \n    }\n    \n    function remove() public {\n        require(msg.sender==owner,\"Only owner can remove contract\");\n        require(!beforeDeadline(),\"Can't remove before event Deadline\");\n        selfdestruct(eventBenificiary);\n    }\n}    \n\n",
  "sourcePath": "/home/nishchal/Videos/Event-O/contracts/Event.sol",
  "compiler": {
    "name": "solc",
    "version": "0.5.16+commit.9c3226ce.Emscripten.clang"
  },
  "schemaVersion": "3.2.0",
  "updatedAt": "2020-06-28T18:00:56.819Z",
  "devdoc": {
    "methods": {}
  },
  "userdoc": {
    "methods": {}
  }
}